:0400000041EF00F0DC
:100008005282FACF1FF0FBCF20F0E9CF21F0EACFE0
:1000180022F0E1CF23F0E2CF24F0D9CF25F0DACFD8
:1000280026F0F3CF27F0F4CF28F0F6CF29F0F7CF5A
:100038002AF0F8CF2BF0F5CF2CF099EC08F02CC073
:10004800F5FF2BC0F8FF2AC0F7FF29C0F6FF28C02C
:10005800F4FF27C0F3FF26C0DAFF25C0D9FF24C06C
:10006800E2FF23C0E1FF22C0EAFF21C0E9FF20C070
:10007800FBFF1FC0FAFF529211005AEF10F0B0D0E8
:10008800000E2D6E800E2E6E020E2F6E400E306EFC
:10009800020E10EC0CF02DC07CF02EC07DF0000E8E
:1000A8000001846F010E99D0000184510001D8A489
:1000B800B2D100017C5100017D11D8B413D07CC0AD
:1000C800D9FF7DC0DAFF0001DFAE04D000018C6BE0
:1000D8008C2B02D000018C6B00018C5100018E6FBB
:1000E8008F6B05D0000E00018F6F000E8E6F000120
:1000F8008E5100018F11D8A48ED1000120EE01F09D
:100108007C51D9267D51DA22DF500001846F000E20
:100118000001876F000E0001836F020E0001856FDA
:10012800000E2D6EC00E2E6E020E2F6E400E306E1B
:10013800020E10EC0CF02DC07EF02EC07FF06BD1BB
:10014800000184510001D8A466D100017E5100014C
:100158007F11D8B413D07EC0D9FF7FC0DAFF000169
:10016800DFAE04D000018C6B8C2B02D000018C6BAD
:1001780000018C510001906F916B05D0000E0001B9
:10018800916F000E906F0001905100019111D8A459
:1001980042D1000120EE01F07E51D9267F51DA22AA
:1001A800DF500001846F010E0001876F000E00010F
:1001B800836F010E0001856F000E2D6E800E2E6E6E
:1001C800020E2F6E400E306E020E10EC0CF02DC099
:1001D8007CF02EC07DF01FD1000E0001856F1BD171
:1001E80000018551000AD8B44BD7010AD8B45CD7AE
:1001F800030AD8B4A5D7F0D7000184510001D8B4B8
:1002080013D10001845100018C6F8D6B2DEC11F01E
:1002180000018C512D5C00018D512E58D8A004D1BD
:1002280080EC11F090D000018751400D800E000144
:100238008C6F020E00018D6FF35000018C27F45073
:1002480000018D2300018351010DF35000018C251D
:10025800D96EF45000018D21DA6EDF500001996FDC
:100268000001832B0001840700019951400B000114
:10027800826F000199AF08D08A9C000199513F0B09
:100288000001806F010EC4D0000199A104D00001C3
:100298008C6B8C2B02D000018C6B00018C3B8C4743
:1002A8008C478A5000018C19BF0B8C198A6E00018B
:1002B80099A304D000018C6B8C2B02D000018C6BAD
:1002C80000018C3B8C478C478B5000018C19BF0B6D
:1002D8008C198B6E000199A904D000018C6B8C2BB2
:1002E80002D000018C6B00018C338C338B500001E1
:1002F8008C197F0B8C198B6E000199AB04D000010F
:100308008C6B8C2B02D000018C6B00018C478C47C6
:100318008B5000018C19FB0B8C198B6E000199A76F
:1003280002D0010E01D0000E0001886F0001825139
:100338000001D8B408D081A802D0010E01D0000E67
:1003480002091EEC11F0000184510001D8B46CD0F0
:100358006AD7000184510001D8B455D000018451F6
:1003680000018C6F8D6B2DEC11F000018C512D5C10
:1003780000018D512E58D8A046D079EC11F03AD012
:1003880000018751400D800E00018C6F020E0001A4
:100398008D6FF35000018C27F45000018D2300016C
:1003A8008351010DF35000018C25D96EF4500001E2
:1003B8008D21DA6EDF500001966F0001832B00015A
:1003C80096516AEC11F07DEC11F0000182510001A8
:1003D800D8B40CD000018851D8B405D075EC11F010
:1003E8001EEC11F003D0FF0E1EEC11F00001840783
:1003F80000018007000184510001D8B404D0000135
:100408008051D8A4BDD700018051D8A40DD0000ECA
:100418000001816F09D000018151000AD8B4ECD6DF
:10042800010AD8B496D7F3D700017A5100017B119D
:10043800D8B413D07AC0D9FF7BC0DAFF0001DFAE91
:1004480004D000018C6B8C2B02D000018C6B000156
:100458008C510001926F936B05D0000E0001936FD1
:10046800000E926F0001925100019311D8A412005E
:1004780070EC11F02D500001986F000198510001A7
:10048800D8B432D03D0E0001986506D0000E0001A8
:10049800956F3E0E946F04D098C094F00001956B50
:1004A80094C097F0310E0201406F600E0201416F57
:1004B800420E2D6E020E2E6E97C02FF0F5EC0FF047
:1004C800010E2D6E400E2E6E020E2F6E00019751FA
:1004D800020F306E010E10EC0CF02DC07AF02EC019
:1004E8007BF048EC11F012005CEC11F00009D8B474
:1004F8001200310E0201406F600E0201416F010EC1
:100508002D6E400E2E6E020E2F6E020E306E010EF4
:1005180010EC0CF02DC07AF02EC07BF048EC11F0F6
:10052800120000018A6F000E0001896F69D0000E69
:1005380045D0D10E2D6E3F0E2E6E2ED0D10E2D6EC3
:100548003F0E25D0D30E2D6E3F0EF6D7D30E2D6E4F
:100558003F0E1DD0D50E2D6E3F0EEED7D50E2D6E4B
:100568003F0E15D0980EF66E3F0E42D00800F5CF1C
:1005780089F08BD0990EF66E3F0E3AD01C0E1ED025
:10058800CB0E2D6E3F0ED8D7CB0E2D6E3F0E2E6E96
:10059800010E2D26000E2E222DC0F6FF2EC0F7FFCD
:1005A800E5D7940E0BD0890EF66E3F0E21D0890E3A
:1005B800F66E3F0EF76E0800F55015D00001896FF2
:1005C80064D08B0EF66E3F0E13D08B0EF66E3F0E78
:1005D800F76E0800F5CF2DF0890EF66E3F0EF76E18
:1005E8000800F5502D24940FE9D78D0EF66E3F0EB6
:1005F800F76EBCD79AC089F048D000019B51DED76E
:1006080000018A51000AD8B492D7010AD8B48FD70A
:10061800030AD8B48ED7010AD8B490D7070AD8B439
:1006280091D7010AD8B492D7030AD8B493D7010A4C
:10063800D8B494D70F0AD8B495D7010AD8B49AD7A2
:10064800030AD8B49BD7010AD8B471D7070AD8B41B
:1006580097D7010AD8B498D7030AD8B4A2D7010A01
:10066800D8B4A1D71F0AD8B4A2D7010AD8B4A9D739
:10067800030AD8B4AAD7010AD8B4B7D76D0AD8B430
:10068800B9D7010AD8B4B9D752D7130E00018A6571
:100698002AD0890EF66E3F0EF76E0800F5502D6EC3
:1006A8002E6A140E2D26000E2E2200018A512F6E5E
:1006B800306A2D502F5C3050800A316E2E50800ADF
:1006C8003158D8B010D0EC0E2D6EFF0E2E6E0001F2
:1006D8008A512F6E306A2D502F262E503022890EC7
:1006E800F66E3F0ECCD0890EF66E3F0EF76E080000
:1006F800F5502D6E2E6A140E2D26000E2E220001A6
:100708008A512F6E306A2D502F5C3050800A316E1E
:100718002E50800A3158D8A03FD0890EF66E3F0E71
:10072800F76E0800F5502D6E2E6A8B0EF66E3F0E92
:10073800F76E0800F5502D26000E2E22140E2D26D9
:10074800000E2E2200018A512F6E306A2D502F5C28
:100758003050800A316E2E50800A3158D8B01CD0E3
:10076800890EF66E3F0EF76E0800F5502D6E2E6A54
:10077800140E2D26000E2E222D1E2E1E2D4A2E2A38
:1007880000018A512F6E306A2D502F262E503022AC
:100798008B0EF66E3F0E73D0890EF66E3F0EF76E17
:1007A8000800F5502D6E2E6A8B0EF66E3F0EF76E12
:1007B8000800F5502D26000E2E22140E2D26000EB0
:1007C8002E2200018A512F6E306A2D502F5C305036
:1007D800800A316E2E50800A3158D8A062D0890E16
:1007E800F66E3F0EF76E0800F5502D6E2E6A8B0ED2
:1007F800F66E3F0EF76E0800F5502D26000E2E22DD
:100808008D0EF66E3F0EF76E0800F5502D26000E81
:100818002E22140E2D26000E2E2200018A512F6E34
:10082800306A2D502F5C3050800A316E2E50800A6D
:100838003158D8B036D0890EF66E3F0EF76E0800E4
:10084800F5502D6E2E6A8B0EF66E3F0EF76E080071
:10085800F5502D26000E2E22140E2D26000E2E22C7
:100868002D1E2E1E2D4A2E2A00018A512F6E306A07
:100878002D502F262E5030228D0EF66E3F0EF76E1D
:100888000900F5CF31F00900F5CF32F02F503126AD
:100898003050322231C0F6FF32C0F7FF0800F5CFE2
:1008A80089F0000189511200086E000E076E68D0A9
:1008B800000E45D0D10E016E3F0E026E2ED0D10E25
:1008C800016E3F0E25D0D30E016E3F0EF6D7D30E24
:1008D800016E3F0E1DD0D50E016E3F0EEED7D50E20
:1008E800016E3F0E15D0980EF66E3F0E41D00800EF
:1008F800F5CF07F089D0990EF66E3F0E39D01C0E51
:100908001ED0CB0E016E3F0ED8D7CB0E016E3F0E18
:10091800026E010E0126000E022201C0F6FF02C07F
:10092800F7FFE5D7940E0BD0890EF66E3F0E20D058
:10093800890EF66E3F0EF76E0800F55014D0076E5C
:1009480063D08B0EF66E3F0E13D08B0EF66E3F0EF5
:10095800F76E0800F5CF01F0890EF66E3F0EF76EC0
:100968000800F5500124940FEAD78D0EF66E3F0E5D
:10097800F76EBDD79AC007F047D000019B51DFD76B
:100988000850000AD8B494D7010AD8B491D7030AFA
:10099800D8B490D7010AD8B492D7070AD8B493D755
:1009A800010AD8B494D7030AD8B495D7010AD8B4A1
:1009B80096D70F0AD8B497D7010AD8B49CD7030A98
:1009C800D8B49DD7010AD8B473D7070AD8B499D731
:1009D800010AD8B49AD7030AD8B4A4D7010AD8B45C
:1009E800A3D71F0AD8B4A4D7010AD8B4AAD7030A30
:1009F800D8B4ABD7010AD8B4B8D76D0AD8B4BAD727
:100A0800010AD8B4BAD754D7130E086428D0890E6F
:100A1800F66E3F0EF76E0800F550016E026A140E6E
:100A28000126000E02220850036E046A0150035C7E
:100A38000450800A056E0250800A0558D8B00FD0BD
:100A4800EC0E016EFF0E026E0850036E046A015030
:100A5800032602500422890EF66E3F0EC6D0890E78
:100A6800F66E3F0EF76E0800F550016E026A140E1E
:100A78000126000E02220850036E046A0150035C2E
:100A88000450800A056E0250800A0558D8A03DD04F
:100A9800890EF66E3F0EF76E0800F550016E026A79
:100AA8008B0EF66E3F0EF76E0800F5500126000E0D
:100AB8000222140E0126000E02220850036E046A58
:100AC8000150035C0450800A056E0250800A0558E4
:100AD800D8B01BD0890EF66E3F0EF76E0800F550A1
:100AE800016E026A140E0126000E0222011E021E69
:100AF800014A022A0850036E046A01500326025074
:100B080004228B0EF66E3F0E70D0890EF66E3F0EE5
:100B1800F76E0800F550016E026A8B0EF66E3F0EF6
:100B2800F76E0800F5500126000E0222140E012669
:100B3800000E02220850036E046A0150035C045040
:100B4800800A056E0250800A0558D8A060D0890E28
:100B5800F66E3F0EF76E0800F550016E026A8B0EB6
:100B6800F66E3F0EF76E0800F5500126000E0222C1
:100B78008D0EF66E3F0EF76E0800F5500126000E3A
:100B88000222140E0126000E02220850036E046A87
:100B98000150035C0450800A056E0250800A055813
:100BA800D8B035D0890EF66E3F0EF76E0800F550B6
:100BB800016E026A8B0EF66E3F0EF76E0800F55056
:100BC8000126000E0222140E0126000E0222011E2A
:100BD800021E014A022A0850036E046A01500326C5
:100BE800025004228D0EF66E3F0EF76E0900F5CF07
:100BF80005F00900F5CF06F003500526045006223B
:100C080005C0F6FF06C0F7FF0800F5CF07F007504C
:100C1800120002013205D8A410D0020130511F0B76
:100C28000009D8A40AD0368E030E02013119D8A4BF
:100C380002D0010E01D0000E426E02013251D8A43A
:100C48001200020130511F0B020AD8A4120002013F
:100C580034510F0B0009D8B41200020134510F0BA4
:100C6800156E030E15601200200E00018619D8A417
:100C78001200368E020134BF1BD0020134510F0B13
:100C8800156E1550020D6E0EF324D96E000EF42069
:100C9800DA6EDECF19F0DDCF1AF0020134510F0BF6
:100CA800156E1550010D770EF324D96E000E1AD06B
:100CB800020134510F0B156E1550020D680EF32406
:100CC800D96E000EF420DA6EDECF19F0DDCF1AF0FF
:100CD800020134510F0B156E1550010D740EF324DB
:100CE800D96E000EF420DA6EDF50186E18B002D0FC
:100CF800199401D01984020134BF0BD00201345178
:100D08000F0B156E1550020D6E0EF324D96E000EE2
:100D18000AD0020134510F0B156E1550020D680EE2
:100D2800F324D96E000EF420DA6E19C0DEFF1AC063
:100D3800DDFF030E02013119D8A42FD019C0D9FF45
:100D48001AC0DAFFDFAE1CD0020134BF0BD002019B
:100D580034510F0B156E1550010D770EF324D96E13
:100D6800000E0AD0020134510F0B156E1550010DFB
:100D7800740EF324D96E000EF420DA6E0001DF82BF
:100D880019C0D9FF1AC0DAFF000EDB8419C0D9FFD9
:100D98001AC0DAFF000EDB8E1200040E191A19C0F1
:100DA800D9FF1AC0DAFFDFAE1BD019C0D9FF1AC0AD
:100DB800DAFF7F0EDF1619C0D9FF1AC0DAFF000E5E
:100DC800DB8C000E0E6E050E0D6E19C00FF01AC0EA
:100DD80010F0000E126E020E116E6AEC0FF006D0C3
:100DE80019C0D9FF1AC0DAFF000EDB8C040E191ADD
:100DF80018B206D019C0D9FF1AC0DAFFDFAE31D059
:100E0800020134BF0BD0020134510F0B156E15507F
:100E1800010D770EF324D96E000E0AD00201345169
:100E28000F0B156E1550010D740EF324D96E000EBC
:100E3800F420DA6E0001DF9219C0D9FF1AC0DAFF78
:100E48003B0EDF16000E0E6E050E0D6E19C00FF06C
:100E58001AC010F0000E126E020E116E6AEC0FF03E
:100E680006D019C0D9FF1AC0DAFF3B0EDF160201FF
:100E780034510F0B156E1550010D530EF324166ED9
:100E88000F0EF420176E16C0D9FF17C0DAFFFE0E3A
:100E9800DF161200A094000E0F015F6F000E626E45
:100EA800000E0F01536F540E2D6E0F0E2E6E000E96
:100EB800306E000E2F6E000E326E020E316E92EC06
:100EC80010F0160E616E9F0E0F015B6F7B0E606E49
:100ED800000E00018B6F0B0E00018B6501D010D046
:100EE80000018B51040D000EF324D96E020EF4207C
:100EF800DA6EDE6ADE6ADE6ADD6A00018B2BEBD70A
:100F0800648C000E0F015C6F6498649C0BD0629631
:100F1800000E366E000E0001636F000E0001656F53
:100F2800000E646F62B6F3D7010E496E010E4A6E69
:100F3800000E466E000E476E000E456E000E000154
:100F48008B6F020E00018B6501D033D000018B51ED
:100F5800020D680EF324D96E000EF420DA6E000E2E
:100F6800DE6E000EDD6E00018B51020D6E0EF32455
:100F7800D96E000EF420DA6E000EDE6E000EDD6E05
:100F880000018B51010D740EF324D96E000EF4206C
:100F9800DA6E000EDF6E00018B51010D770EF3241F
:100FA800D96E000EF420DA6E000EDF6E00018B2B76
:100FB800C8D7080E0001686F020E0001696F160E8F
:100FC8000F01536F020E0201036F300E026F080EFD
:100FD8000201016F040E0201006F0201008F000E72
:100FE8004F6E000E0001866F1200A094000E0F01D4
:100FF8005F6F000E626E000E0F01536F540E016E8C
:101008000F0E026E000E046E000E036E000E066ECA
:10101800020E056EC0EC10F0160E616E9F0E0F01E9
:101028005B6F7B0E606E000E096E0B0E096401D0BB
:101038000ED00950040D000EF324D96E020EF420D0
:10104800DA6EDE6ADE6ADE6ADD6A092AEED7648C49
:10105800000E0F015C6F6498649C0BD06296000EC2
:10106800366E000E0001636F000E0001656F000E02
:10107800646F62B6F3D7010E496E010E4A6E000E18
:10108800466E000E476E000E456E000E096E020E8B
:10109800096401D02ED00950020D680EF324D96ED0
:1010A800000EF420DA6E000EDE6E000EDD6E0950C2
:1010B800020D6E0EF324D96E000EF420DA6E000EC7
:1010C800DE6E000EDD6E0950010D740EF324D96E2C
:1010D800000EF420DA6E000EDF6E0950010D770E57
:1010E800F324D96E000EF420DA6E000EDF6E092AA2
:1010F800CED7080E0001686F020E0001696F160E48
:101108000F01536F020E0201036F300E026F080EBB
:101118000201016F040E0201006F0201008F000E30
:101128004F6E000E0001866F120000018605D8B4CC
:1011380064BA07D0000E626E60806088020E0001FB
:10114800866F62B460A403D06294A9EC10F064A224
:1011580002D0A194120062B060A007D0F9EC07F0A9
:10116800A084040E0001866F629062B860A803D064
:10117800D6EC10F0629862AC18D060AC0ED0000EBD
:101188000E6E730E0D6E000E0F6E000E106E000EBA
:10119800126E010E116E6AEC0FF0629C4B50D8A4CF
:1011A8004B064B50D8B43FEC0DF062BA60AA02D09F
:1011B80019EC10F062B260A210D07F0E0E6E0D68AE
:1011C800000E0F6E000E106E000E126E010E116EE4
:1011D8006AEC0FF0000E0F015F6F040E00018661CC
:1011E80002D0A194120060A639D0000E1E6E030E24
:1011F8001E6401D033D062A631D063CF51F0513094
:10120800E832E8320F0B4D6E629651B407D04D505C
:10121800010D770EF324D96E000E06D04D50010D46
:10122800740EF324D96E000EF420DA6E0001DF701C
:101238004D50D8A403D0A9EC0BF00ED0000E0E6EC2
:10124800720E0D6E510E0F6E000E106E000E126EA5
:10125800000E116E6AEC0FF01E2AC9D7A194120075
:10126800800E02013019D8A41200C00E366E7CD050
:10127800C90E336E3F0E346E000E386E120E376E86
:10128800120002013251D8A43ED002013251020D9F
:101298008F0EF324F66E3F0EF420F76E0900F5CF9B
:1012A80033F00A00F5CF34F0020E3324016E000E3D
:1012B8003420026E01C0F6FF02C0F7FFF86A020E82
:1012C800F76403D00800F55005D0F6CFE1FFF7CF5B
:1012D800E2FFE750376E030E3324016E000E342010
:1012E800026E01C0F6FF02C0F7FFF86A020EF7644B
:1012F80003D00800F55005D0F6CFE1FFF7CFE2FFA5
:10130800E750386E1200000E366E1200040E02010D
:10131800326124D002013251020D870EF324F66E99
:101328003F0EF420F76E0900F5CF33F00A00F5CF31
:1013380034F033C0F6FF34C0F7FFF86A020EF764E2
:1013480003D00800F55005D0F6CFE1FFF7CFE2FF54
:10135800E750016E0150376E386A1200000E366E83
:101368001200000E366E120002013351010AD8B481
:101378007FD7030AD8B485D7010AD8B4C7D7F1D71D
:1013880020EE01F03B50D9263C50DA22DF50026EA5
:1013980002500001645D000E6559D8A064C002F0D7
:1013A80002500001645F000E655B000E016E12D0F2
:1013B8000150010D380EF324D96E020EF420DA6EB6
:1013C80060C0E1FF61C0E2FFDFCFE7FF0001604BD3
:1013D800612B012A0250015CD8A0EAD700016451B0
:1013E80000016511D8B432D020EE01F03D50D92665
:1013F8003E50DA22080EDF6E20EE02F03D50D9266C
:101408003E50DA22380EDE6E020EDD6E3BC0D9FF8A
:101418003CC0DAFFDFBC0DD03DC0D9FF3EC0DAFFCB
:10142800480EDF6E3DC0D9FF3EC0DAFF000EDB8EEE
:1014380012003DC0D9FF3EC0DAFF080EDF6E3DC086
:10144800D9FF3EC0DAFF000EDB8E120020EE01F05D
:101458003D50D9263E50DA22080EDF6E20EE02F00B
:101468003D50D9263E50DA22300EDE6E020EDD6E79
:101478003DC0D9FF3EC0DAFF040EDF6E3DC0D9FF84
:101488003EC0DAFF000EDB8E0001639F4850D8A4EF
:1014980012003FEC0DF01200649836BE39D00001FE
:1014A80063AF0BD0020E4C6E4750D8B455EC0EF01B
:1014B800000E4A6E000E496E120020EE01F03D50FB
:1014C800D9263E50DA22080EDF6E20EE02F03D509B
:1014D800D9263E50DA22300EDE6E020EDD6E3DC099
:1014E800D9FF3EC0DAFF0C0EDF6E3DC0D9FF3EC00B
:1014F800DAFF000EDB8E68C0D9FF69C0DAFF040E80
:10150800DF6E68C0D9FF69C0DAFF000EDB8E1200FB
:10151800020130AF10D0010E4C6E4650D8B455ECD5
:101528000EF0000E4A6E000E496E4850D8A4120004
:101538003FEC0DF01200020E4C6E20EE01F03D5013
:10154800D9263E50DA22080EDF6E20EE02F03D501A
:10155800D9263E50DA22300EDE6E020EDD6E3DC018
:10156800D9FF3EC0DAFF040EDF6E3DC0D9FF3EC092
:10157800DAFF000EDB8E000E4A6E000E496E4850F0
:10158800D8A412003FEC0DF01200368E540E016EF6
:101598000F0E026E000E046E000E036E000E066E35
:1015A800020E056EC0EC10F0000E016E020E026E07
:1015B800000E046E000E036E000E066E300E056EF1
:1015C800C0EC10F0648C000E156E020E156401D08C
:1015D80016D01550010D740EF324D96E000EF420A8
:1015E800DA6E000EDF6E1550010D770EF324D96EFA
:1015F800000EF420DA6E000EDF6E152AE6D7500EC4
:10160800016E000E026E000E046E000E036E000ED8
:10161800066E010E056EC0EC10F0649C080E000109
:10162800686F020E0001696F000E3B6E020E3C6E81
:101638003BC03DF03CC03EF032C24FF04F50D8A402
:1016480004D0100E0001866F1200000E0E6E010EFF
:101658000D6E4F0E0F6E000E106E000E126E010E04
:10166800116E6AEC0FF0200E0001866F1200020165
:101678003039E832030B0009D8A4120044D0368E62
:10168800080E0001866F120034EC09F01200C9EC54
:101698000AF012004F0E336E000E346E3680010EC3
:1016A800376E368E120000EC0EF012000DEC06F0CC
:1016B800120002013451010D500EF324336E000E56
:1016C800F420346E3680010E376E368E1200368E58
:1016D80002013451010D500EF324D96E000EF4208E
:1016E800DA6E32C2DFFF1200000E0E6E020E0D6EB1
:1016F800000E0F6E000E106E000E126E000E116EB0
:101708006AEC0FF0120002013151000AD8B4CBD7AD
:10171800010AD8B4CBD7020AD8B4C8D7060AD8B4B5
:10172800AED7030AD8B4B0D7010AD8B4DDD70F0AA8
:10173800D8B4B0D7010AD8B4AAD7030AD8B4B9D74D
:10174800010AD8B4C4D7070A12002D0E4B6E51C037
:101758001BF0FD0E1B16D8A457D051C01BF0D89013
:101768001B323F0E1B161B50040D000EF3243B6E5C
:10177800020EF4203C6E3BC03DF03CC03EF0040E2F
:101788003D1A3BC0D9FF3CC0DAFFDF30E8320F0B0F
:101798000D0AD8A436D0000E1D6E070E1D6401D0A8
:1017A80023D020EE02F03B50D9263C50DA22DECF7F
:1017B8001BF0DDCF1CF01BC0D9FF1CC0DAFF1D5089
:1017C800010D300EF324E16E020EF420E26EDFCF3D
:1017D800E7FF20EE02F03B50D9263C50DA22DE2A01
:1017E800000EDD221D2AD9D720EE02F03B50D92663
:1017F8003C50DA22300EDE6E020EDD6EECEC0EF09E
:1018080012009AEC0FF012005150FD0B040AD8A4F4
:10181800120076EC0CF012000001896F2D50D8B43C
:1018280008D000018951020D680EF324D96E000E0C
:1018380007D000018951020D6E0EF324D96E000EF7
:10184800F420DA6EDECF8AF0DDCF8BF000018A510A
:1018580000018B11D8A405D0000E2D6E000E2E6E3F
:101868001200000120EE02F08A51D9268B51DA22AB
:101878002EC0DEFF2FC0DDFF000120EE01F08A51EF
:10188800D9268B51DA2230C0DFFF8AC0D9FF8BC03E
:10189800DAFF400EDF168AC0D9FF8BC0DAFF000ED0
:1018A800DB868AC0D9FF8BC0DAFF000EDB8E2D5095
:1018B800D8B408D000018951020D680EF324D96EFE
:1018C800000E07D000018951020D6E0EF324D96E67
:1018D800000EF420DA6E040EDF1A8AC02DF08BC0D9
:1018E8002EF0120068C0D9FF69C0DAFF0001000EAF
:1018F800DFBC010E026E040E0001681B080E000119
:101908008619D8A40ED0020132517F0B0F015C6FEB
:101918000F015C51D8B402D0100E01D0040E0001A2
:10192800866F4C04D8A43BD0000120EE02F0685129
:10193800D9266951DA22380EDE6E020EDD6EDBEC36
:101948000CF0020E4E18D8A40DD068C0D9FF69C09B
:10195800DAFF040EDF6E68C0D9FF69C0DAFF000E37
:10196800DB8E12000250D8A40DD068C0D9FF69C020
:10197800DAFF480EDF6E68C0D9FF69C0DAFF000ED3
:10198800DB8E120068C0D9FF69C0DAFF080EDF6E6F
:1019980068C0D9FF69C0DAFF000EDB8E12000001B3
:1019A80063AF02D00001639F000E4C6E1200080E58
:1019B800016E385010E1080E375CD8B00CD037C033
:1019C80001F04E50D8A402D0010E04D04E04D8A481
:1019D80002D0020E4E6E0150375E000E385A0001DA
:1019E80020EE01F06851D9266951DA2201C0DFFFE3
:1019F800380E3F6E020E406E36A01BD038D033C072
:101A0800F6FF34C0F7FFF86A3FC0D9FF40C0DAFFDD
:101A1800020EF76403D00800F55005D0F6CFE1FFB9
:101A2800F7CFE2FFE750DF6E334A342A3F4A402AB5
:101A380001060150D8B41200E2D733C0F6FF34C013
:101A4800F7FFF86A3FC0D9FF40C0DAFF020EF7641B
:101A580003D00800F55005D0F6CFE1FFF7CFE2FF3D
:101A6800E750DF6E334A342A3F4A402A01060150C4
:101A7800D8B41200E2D74950D8A41200010E496E1A
:101A88004A50D8A41200010E4A6E020E4C18D8A46F
:101A980016D0000120EE01F06851D9266951DA22EA
:101AA800000EDF6E68C0D9FF69C0DAFF480EDF6E2E
:101AB80068C0D9FF69C0DAFF000EDB8E12004C0443
:101AC800D8A41200000E416E20EE01F03B50D9263A
:101AD8003C50DA22080EDF6E20EE02F03B50D92689
:101AE8003C50DA22300EDE6E020EDD6E3BC0D9FFAE
:101AF8003CC0DAFF040EDF6E3BC0D9FF3CC0DAFF02
:101B0800000EDB8E010E416E20EE01F03D50D9260D
:101B18003E50DA22080EDF6E20EE02F03D50D92644
:101B28003E50DA22300EDE6E020EDD6E3DC0D9FF69
:101B38003EC0DAFF800EDF6E1200AA0E00019B6F16
:101B4800AA0E9A6F000E0001926F7D0E0001926539
:101B580001D012000001922995EC02F000018B6F70
:101B680000018B510001906F916B000190510001B1
:101B7800916F906B0001925195EC02F000018B6F10
:101B88000001905100018B110001906F00019151EB
:101B98000001916F0001905100019A1900019A6F9C
:101BA8000001915100019B1900019B6F9AC08BF0B5
:101BB8009BC08CF00F0E00018D6F0001D8908C3304
:101BC8008B3300018D2FF9D79AC08EF09BC08FF010
:101BD800D89000018E378F3700018B5100018E118C
:101BE80000019A6F00018C5100018F1100019B6F59
:101BF80000019251020FA7D7000E0201386F000EA4
:101C08000201396F38D0368E4204D8A440D0020180
:101C180038833DD0368E3BD0368E020134BF0BD090
:101C2800020134510F0B016E0150020D6E0EF324A8
:101C3800D96E000E0AD0020134510F0B016E01500B
:101C4800020D680EF324D96E000EF420DA6EDECF92
:101C580002F0DDCF03F002C0D9FF03C0DAFFDFAE28
:101C680016D002C0D9FF03C0DAFFDFA410D0010EDE
:101C78000201386F0CD0020130511F0B000AD8B492
:101C8800C2D7010AD8B4C6D7030AD8B4C5D736AE66
:101C98001200380E336E020E346E3680020E376E26
:101CA8001200000E466E000E476E020E4C18D8A4A5
:101CB8001FD020EE01F03D50D9263E50DA22080E02
:101CC800DF6E20EE02F03D50D9263E50DA22380E63
:101CD800DE6E020EDD6E3DC0D9FF3EC0DAFF480E53
:101CE800DF6E3DC0D9FF3EC0DAFF000EDB8E12006A
:101CF80037500201365D385002013759D8B004D048
:101D080036C237F037C238F0DBEC0CF0000120EEB9
:101D180002F06851D9266951DA22380EDE6E020EB9
:101D2800DD6E68C0D9FF69C0DAFF480EDF6E68C093
:101D3800D9FF69C0DAFF000EDB8E1200066E000EB6
:101D4800076E020E086E0150026E036AD8900236C2
:101D580003360650046E056AD89004360536D890C6
:101D6800043605360250042603500522D89004365E
:101D78000536D89004360536045007260550082243
:101D880007C0D9FF08C0DAFFDF9E0150D8A407D0EA
:101D98000650020D6E0EF324D96E000E06D00650C2
:101DA800020D680EF324D96E000EF420DA6E07C017
:101DB800DEFF08C0DDFF07C0D9FF08C0DAFFDF9CDF
:101DC80020EE04F00750D9260850DA22DF8C1200E2
:101DD800000E4E6E000E486E000E466E000E476EE8
:101DE800000E416E000E4C6E68C0D9FF69C0DAFF64
:101DF8007F0EDF16040E0001681B68C0D9FF69C09A
:101E0800DAFF7F0EDF16040E0001681B3DC0D9FF04
:101E18003EC0DAFF7F0EDF16000E366E000E386EFB
:101E2800000E376E000E0001636F000E0001656F33
:101E3800000E646F3BEC0BF0000E0E6E030E0D6E81
:101E4800000E0F6E000E106E000E126E000E116E58
:101E58006AEC0FF050EC0AF0120002013039E83257
:101E6800030B020AD8A41200020130BF0BD0380EAF
:101E7800336E020E346E000E386E000E376EC10ED1
:101E8800366E19D0900E02013119D8A40ED0020175
:101E9800345134257E0B096E095058EC04F00201C8
:101EA800386F092858EC04F004D0360E0201386F58
:101EB800830E0201396F380E336E020E346E000E37
:101EC800386E020E376EC10E366E120008D0C8EC9E
:101ED8000FF0120084EC11F031EC0FF012000DC07D
:101EE80013F00EC014F01450000AD8B404D07F0ABE
:101EF800D8A4120018D01350010AD8B4E8D7030A9E
:101F0800D8B41200010AD8B4E5D7060AD8B412002A
:101F1800770AD8B41200010AD8B41200070AD8B454
:101F28001200010A12001350FF0A1200020E4C1888
:101F3800D8A403D0C4EC09F01200000E4C6E415036
:101F4800D8A41FD020EE01F03D50D9263E50DA2209
:101F5800080EDF6E20EE02F03D50D9263E50DA2200
:101F6800300EDE6E020EDD6E3DC0D9FF3EC0DAFFD8
:101F78000C0EDF6E3DC0D9FF3EC0DAFF000EDB8ECF
:101F88001200000E416E1200000E00017C6F000E60
:101F980000017D6F000E00017E6F000E00017F6F53
:101FA800000E00017A6F000E00017B6F53EC11F0F8
:101FB800000E0001856F000E0001816F82EC11F0A8
:101FC800000E0001806F010E0001886F1A0E096E65
:101FD800010E3CEC10F01C0E096E020E3CEC10F0E9
:101FE80012002F50306E316A301E311E304A312AAD
:101FF80039503024396E3A5031203A6E12D043505D
:10200800010D000EF324D96E010EF420DA6E2DC0F6
:10201800E1FF2EC0E2FFDFCFE7FF432A2D4A2E2A39
:102028002F062F50D8B41200EAD70F0153A11ED0A3
:102038003BC0D9FF3CC0DAFF800EDE18D8A414D00C
:1020480068C0D9FF69C0DAFF840EDE18D8A40CD0A6
:102058003BC0D9FF3CC0DAFF0C0EDF6E3BC0D9FF96
:102068003CC0DAFF000EDB8E0F015391629A12001A
:102078000C6E09A405D0000E016E0C50A2EC0EF0F7
:1020880009A205D0010E016E0C50A2EC0EF00C5006
:10209800010D530EF3240A6E0F0EF4200B6E0AC0C6
:1020A800D9FF0BC0DAFF09C0DFFF120001EE00F014
:1020B80011EE00F0EE6AE550E150FCE1E250FAE181
:1020C80000EE60F0290EEE6AE806FDE100EE33F05E
:1020D8001F0EEE6AE806FDE152905292000EF86E6D
:1020E8000001FDEF10F000018651D8A41200000E87
:1020F800646E000E606E160E616E9F0E0F015B6FB0
:102108007B0E606ED08EA284A084F28E01D064868D
:1021180064A6FDD7010E0001866F12002DC089F05C
:102128002EC08AF009D089C0D9FF8AC0DAFF2FC033
:10213800DFFF0001894B8A2B3106D8A032063128EF
:10214800F2E13228D8B41200EED7000E456E000E28
:102158000E6E740E0D6E000E0F6E000E106E000ED9
:10216800126E000E116E6AEC0FF06492609401D04A
:10217800629462A41200FCD701C007F002C008F004
:1021880008D007C0D9FF08C0DAFF03C0DFFF074A3D
:10219800082A0506D8A006060528F3E10628D8B4BB
:1021A8001200EFD7608462986482010E456E000EBB
:1021B8000E6E750E0D6E000E0F6E000E106E000E78
:1021C800126E000E116E6AEC0FF01200000E7E6E99
:1021D800000E7F6E000E766E8B948A9C8B8C8B9E85
:1021E800300E936E1B0E946E400EC76E000EC66EB8
:1021F80012000FEC11F063EC11F04EEC07F077ECE5
:1022080010F0200E0001866101D0FBD764B2F9D727
:1022180043EC00F0F6D71B0E946E2C0EBD6E010E2B
:10222800B96E000ECC6E000EBE6E000ECB6E040EA4
:10223800CA6E12002D6E4450010D000EF324D96EA3
:10224800010EF420DA6E2DC0DFFF442A394A3A2AFB
:10225800120039C02FF03AC030F02F1E301E2F4A1E
:10226800302A000E2F242D6E010E30202E6E120003
:102278002D6E2D50010D870EF324F66E3E0EF420C0
:10228800F76E0800F5501200F29A000ED56EF2941F
:10229800150ED76EA00ED66E800ED56E1200000EEB
:1022A800436E000E446E000E3A6E000E396E120038
:1022B800000EF2B4010E2D6EF2942D501200A1EC16
:1022C8000DF0EAEC10F048EC11F012002E6E2E50D2
:1022D8003CEC11F0C96E120039C02DF03AC02EF056
:1022E8001200C9503CEC11F01200938CC68A939CE2
:1022F8001200C7B01200FDD7C69A1200C69A120083
:022308001200C1
:103E860000008040C020A060E0109050D030B0709C
:103E9600F0088848C828A868E8189858D838B87824
:103EA600F8048444C424A464E4149454D434B47448
:103EB600F40C8C4CCC2CAC6CEC1C9C5CDC3CBC7CC4
:103EC600FC028242C222A262E2129252D232B27242
:103ED600F20A8A4ACA2AAA6AEA1A9A5ADA3ABA7AC4
:103EE600FA068646C626A666E6169656D636B676E8
:103EF600F60E8E4ECE2EAE6EEE1E9E5EDE3EBE7E64
:103F0600FE018141C121A161E1119151D131B1710E
:103F1600F1098949C929A969E9199959D939B97993
:103F2600F9058545C525A565E5159555D535B575B7
:103F3600F50D8D4DCD2DAD6DED1D9D5DDD3DBD7D33
:103F4600FD038343C323A363E3139353D333B373B1
:103F5600F30B8B4BCB2BAB6BEB1B9B5BDB3BBB7B33
:103F6600FB078747C727A767E7179757D737B77757
:103F7600F70F8F4FCF2FAF6FEF1F9F5FDF3FBF7FD3
:103F8600FFFB3FED3FB13FDB3F913F0902200001C0
:103F96000100C0320904000002FFFFFF000705818F
:103FA60002400001070502024000011803550053B4
:103FB6000042002D0042006C006100730074006531
:103FC6000072001201100100000008FB09016000E8
:103FD60004010203011203300030003000300030CB
:103FE600003000300030000E0341006C00740065A4
:0A3FF60000720061000403090400DA
:020000040020DA
:08000000FFFFFFFFFFFFFFFF00
:020000040030CA
:0E0000000032011EFF0085FF03C003E0034035
:00000001FF
