:040000003FEF00F0DE
:10000800FACF25F0FBCF26F0E9CF27F0EACF28F08A
:10001800E1CF29F0E2CF2AF0D9CF2BF0DACF2CF0BC
:10002800F3CF2DF0F4CF2EF0F6CF2FF0F7CF30F03E
:10003800F8CF31F0F5CF32F0D7EC03F032C0F5FF4E
:1000480031C0F8FF30C0F7FF2FC0F6FF2EC0F4FF15
:100058002DC0F3FF2CC0DAFF2BC0D9FF2AC0E2FF66
:1000680029C0E1FF28C0EAFF27C0E9FF26C0FBFF3F
:1000780025C0FAFF110068EF0DF002012205D8A48F
:1000880011D0020120511F0B0009D8A40BD0000188
:100098007C8F02012151030AD8A402D0010E01D09D
:1000A800000E3C6E020122671200020120511F0B54
:1000B800020AD8A41200020124510F0B0009D8B477
:1000C8001200020124510F0B176E020E175CD8B0F4
:1000D800120000017851200AD8A4120000017C8F78
:1000E800020124BF1FD0020124510F0B176E1750B5
:1000F800020D00016C0EF324D96E0001000EF420ED
:10010800DA6EDECF1DF0DDCF1EF0020124510F0B99
:10011800176E1750010D0001760EF324D96E0001F9
:10012800000E1ED0020124510F0B176E1750020D3E
:100138000001680EF324D96E0001000EF420DA6E77
:10014800DECF1DF0DDCF1EF0020124510F0B176E1C
:100158001750010D0001740EF324D96E0001000E32
:10016800F420DA6EDF501C6E1CB002D01D9401D052
:100178001D84020124BF0DD0020124510F0B176EFC
:100188001750020D00016C0EF324D96E0001000E09
:100198000CD0020124510F0B176E1750020D0001ED
:1001A800680EF324D96E0001000EF420DA6E1DC02B
:1001B800DEFF1EC0DDFF02012151030AD8A433D09F
:1001C8001DC0D9FF1EC0DAFFDFAE20D0020124BF58
:1001D8000DD0020124510F0B176E1750010D0001AD
:1001E800760EF324D96E0001000E0CD002012451C2
:1001F8000F0B176E1750010D0001740EF324D96E02
:100208000001000EF420DA6E0001DF821DC0D9FF64
:100218001EC0DAFF000EDB841DC0D9FF1EC0DAFF46
:10022800000EDB8E1200040E1D1A1DC0D9FF1EC061
:10023800DAFFDFAE1BD01DC0D9FF1EC0DAFF7F0E6C
:10024800DF161DC0D9FF1EC0DAFF000EDB8C000EC2
:10025800106E050E0F6E1EC012F01DC011F0000EBC
:10026800146E020E136E87EC0BF006D01DC0D9FF7A
:100278001EC0DAFF000EDB8C040E1D1A1CB206D05D
:100288001DC0D9FF1EC0DAFFDFAE35D0020124BF82
:100298000DD0020124510F0B176E1750010D0001EC
:1002A800760EF324D96E0001000E0CD00201245101
:1002B8000F0B176E1750010D0001740EF324D96E41
:1002C8000001000EF420DA6E0001DF921DC0D9FF94
:1002D8001EC0DAFF3B0EDF16000E106E050E0F6E05
:1002E8001EC012F01DC011F0000E146E020E136E27
:1002F80087EC0BF006D01DC0D9FF1EC0DAFF3B0EFD
:10030800DF16020124510F0B176E1750010D530E03
:10031800186E0F0E196EF3501826F450192218C0D3
:100328001AF019C01BF01AC0D9FF1BC0DAFFFE0E65
:10033800DF16120002012051800AD8A41200C00E54
:1003480000017C6FB5D03F0E00017A6FE90E000105
:10035800796F000E00017E6F120E00017D6F120092
:100368000201226746D002012251020D8B0EF324AE
:10037800F66E3E0EF420F76E09000001F5CF79F015
:100388000A000001F5CF7AF0020E00017925016E0E
:10039800000E00017A21026E01C0F6FF02C0F7FFCD
:1003A800F86A020EF76403D00800F55005D0F6CFBE
:1003B800E9FFF7CFEAFFEF5000017D6F030E000160
:1003C8007925016E000E00017A21026E01C0F6FF48
:1003D80002C0F7FFF86A020EF76403D00800F55070
:1003E80005D0F6CFE9FFF7CFEAFFEF5000017E6FA7
:1003F8001200000E00017C6F1200030E0201225D44
:10040800D8B02AD002012251020D850EF324F66ECF
:100418003E0EF420F76E09000001F5CF79F00A00CE
:100428000001F5CF7AF0000179C0F6FF00017AC02B
:10043800F7FFF86A020EF76403D00800F55005D0FC
:10044800F6CFE9FFF7CFEAFFEF50016E0150000148
:100458007D6F00017E6B120002012251EE0AD8A4C2
:100468001FD03F0E00017A6FD70E0001796F00018F
:1004780079C0F6FF00017AC0F7FFF86A020EF76448
:1004880003D00800F55005D0F6CFE9FFF7CFEAFF13
:10049800EF50016E015000017D6F00017E6B12006C
:1004A800000E00017C6F1200000E00017C6F12002C
:1004B80002012351010AD8B446D7030AD8B450D749
:1004C800010AD8B49AD7F0D7A094000E0F015F6F35
:1004D800000E626E000E0F01536F0F010F0E000128
:1004E800806F0F01540E00017F6F000E0001826FB4
:1004F800000E0001816F000E0001846F010E0001E3
:10050800836F8FEC0CF0160E616E9F0E0F015B6F00
:100518007B0E606E000E0001876F11D000018751BD
:10052800040D0201000EF324D96E0201020EF4201C
:10053800DA6EDE6ADE6ADE6ADD6A0001872B070E84
:1005480000018765EBD7648C000E0F015C6F64981F
:10055800649C0DD06296000E00017C6F000E0001B5
:10056800636F000E0001656F000E0001646F62B6D4
:10057800F1D7010E416E010E426E000E3E6E000E66
:100588003F6E000E3D6E000E0001876F3AD00001ED
:100598008751020D0001680EF324D96E0001000E88
:1005A800F420DA6E000EDE6E000EDD6E000187515B
:1005B800020D00016C0EF324D96E0001000EF42028
:1005C800DA6E000EDE6E000EDD6E00018751010D41
:1005D8000001740EF324D96E0001000EF420DA6EC7
:1005E800000EDF6E00018751010D0001760EF32425
:1005F800D96E0001000EF420DA6E000EDF6E0001E5
:10060800872B010E00018765C2D70201020E000187
:10061800696F0201080E0001686F160E0F01536F13
:10062800020E0201036F200E0201026F080E020182
:10063800016F040E0201006F0201008F000E476E69
:10064800000E0001786F1200A094000E0F015F6F7A
:10065800000E626E000E0F01536F0F010F0E026E37
:100668000F01540E016E000E046E000E036E000E94
:10067800066E010E056E29EC0DF0160E616E9F0ECA
:100688000F015B6F7B0E606E000E096E0FD0095074
:10069800040D0201000EF324D96E0201020EF420AB
:1006A800DA6EDE6ADE6ADE6ADD6A092A070E096426
:1006B800EED7648C000E0F015C6F6498649C0DD0BB
:1006C8006296000E00017C6F000E0001636F000E41
:1006D8000001656F000E0001646F62B6F1D7010E6C
:1006E800416E010E426E000E3E6E000E3F6E000E11
:1006F8003D6E000E096E35D00950020D0001680EDE
:10070800F324D96E0001000EF420DA6E000EDE6EBE
:10071800000EDD6E0950020D00016C0EF324D96E37
:100728000001000EF420DA6E000EDE6E000EDD6EA3
:100738000950010D0001740EF324D96E0001000E5A
:10074800F420DA6E000EDF6E0950010D0001760EFE
:10075800F324D96E0001000EF420DA6E000EDF6E6D
:10076800092A010E0964C8D70201020E0001696F47
:100778000201080E0001686F160E0F01536F020E7A
:100788000201036F200E0201026F080E0201016FC1
:10079800040E0201006F0201008F000E476E000E6A
:1007A8000001786F120000017805D8B464BA07D048
:1007B800000E626E60806088020E0001786F62B47D
:1007C80060A403D0629412EC0DF064A202D0A1944C
:1007D800120062B060A007D028EC03F0A084040ED9
:1007E8000001786F629062B860A803D054EC0DF0F5
:1007F800629862AC18D060AC0ED0000E106E730E0A
:100808000F6E000E126E000E116E000E146E010EA9
:10081800136E87EC0BF0629C4350D8A443064366E2
:1008280002D0FCEC09F062BA60AA02D034EC0CF0F9
:1008380062B260A210D07F0E106E0F68000E126EAA
:10084800000E116E000E146E010E136E87EC0BF085
:10085800000E0F015F6F040E0001785DD8B002D062
:10086800A194120060A63BD0000E246E35D062A67B
:1008780036D063CF49F04930E832E8320F0B456E85
:10088800629649B409D04550010D0001760EF32453
:10089800D96E0001000E08D04550010D0001740EFC
:1008A800F324D96E0001000EF420DA6E0001DF7027
:1008B800456603D0FAEC07F00ED0000E106E720EEB
:1008C8000F6E000E126E490E116E000E146E000EA1
:1008D800136E87EC0BF0242A030E2464C8D7A19466
:1008E80012001F0E00017865120064B212000001A8
:1008F80073517211D8B413D072C0D9FF73C0DAFF24
:10090800DFAE04D00001866B862B02D00001866B17
:10091800000186510001876F0001886B06D0000E28
:100928000001886F000E0001876F00018851871150
:10093800D8A412004DD0020E72EC0CF051D0000178
:1009480071517011D8B413D070C0D9FF71C0DAFFDB
:10095800DFAE04D00001866B862B02D00001866BC7
:10096800000186510001896F00018A6B06D0000ED4
:1009780000018A6F000E0001896F00018A518911F8
:10098800D8A42ED0810E0201406F010E3FEC0DF06D
:100998000009D8A402D0010E01D0000E0201416F57
:1009A800010E00017F6F0201020E0001816F02013A
:1009B800400E0001806F400E0001826F010E96EC20
:1009C80006F000017FC070F0000180C071F008D00F
:1009D80002018051800AD8B4AED7010AD8B4AFD783
:1009E800000E00017F6F0201020E0001816F0201FB
:1009F800800E0001806F400E0001826F010E96ECA0
:100A080006F000017FC072F0000180C073F0120090
:100A180020EE01F03550D9263650DA22DF50026E2A
:100A280002500001645D000E00016559D8A064C041
:100A380002F002500001645F000E0001655B000EC9
:100A4800016E14D00150010D0201280EF324D96E55
:100A58000201020EF420DA6E60C0E1FF61C0E2FF1D
:100A6800DFCFE7FF0001604B612B012A0250015CD8
:100A7800D8A0E8D7000165516411D8B432D020EE6F
:100A880001F03750D9263850DA22080EDF6E20EEF2
:100A980002F03750D9263850DA22280EDE6E020EC0
:100AA800DD6E35C0D9FF36C0DAFFDFBC0DD037C0E8
:100AB800D9FF38C0DAFF480EDF6E37C0D9FF38C01B
:100AC800DAFF000EDB8E120037C0D9FF38C0DAFF1C
:100AD800080EDF6E37C0D9FF38C0DAFF000EDB8E94
:100AE800120020EE01F03750D9263850DA22080ECD
:100AF800DF6E20EE02F03750D9263850DA22200E69
:100B0800DE6E020EDD6E37C0D9FF38C0DAFF040E84
:100B1800DF6E37C0D9FF38C0DAFF000EDB8E000168
:100B2800639F40661200FCEC09F0120002012039B4
:100B3800E832030B0009D8A4120055D000017C8FBD
:100B4800080E0001786F12009EEC01F0120019ECFB
:100B580006F01200000E00017A6F470E0001796F4F
:100B680000017C81010E00017D6F00017C8F120065
:100B780099EC09F0120041EC00F012000201245136
:100B8800010D480E1F6E000E206EF3501F26F45004
:100B980020221FC079F020C07AF000017C81010E6C
:100BA80000017D6F00017C8F120000017C8F020123
:100BB8002451010D480EF324D96E000EF420DA6E8C
:100BC800020122C2DFFF1200000E106E020E0F6E2D
:100BD800000E126E000E116E000E146E000E136ED3
:100BE80087EC0BF0120002012151000AD8B4C0D7DB
:100BF800010AD8B4C0D7020AD8B4BDD7060AD8B4F7
:100C08009DD7030AD8B4A0D7010AD8B4DDD70F0AF4
:100C1800D8B4A0D7010AD8B49AD7030AD8B4AED7A3
:100C2800010AD8B4C2D7070A120000017C8F0F014D
:100C38000F0E026E0F01540E016E000E046E000EB0
:100C4800036E000E066E010E056E29EC0DF0020112
:100C5800020E026E0201000E016E000E046E000EFE
:100C6800036E000E066E200E056E29EC0DF0648CE6
:100C7800000E176E19D01750010D0001740EF324E1
:100C8800D96E0001000EF420DA6E000EDF6E1750E8
:100C9800010D0001760EF324D96E0001000EF42038
:100CA800DA6E000EDF6E172A010E1764E4D7000E05
:100CB800026E480E016E000E046E000E036E000EEA
:100CC800066E010E056E29EC0DF0649C0201020E01
:100CD8000001696F0201080E0001686F0201020E2F
:100CE800366E0201000E356E36C038F035C037F06A
:100CF80022C247F0476604D0100E0001786F120038
:100D0800000E106E010E0F6E000E126E470E116E61
:100D1800000E146E010E136E87EC0BF0200E00010E
:100D2800786F12000001836F00017F51D8B40AD098
:100D380000018351020D0001680EF324D96E0001F1
:100D4800000E09D000018351020D00016C0EF3243E
:100D5800D96E0001000EF420DA6E0001DECF84F0B7
:100D68000001DDCF85F0000185518411D8A407D09A
:100D7800000E0001806F000E00017F6F120000015D
:100D880020EE02F000018451D92600018551DA22B3
:100D9800000180C0DEFF000181C0DDFF000120EE00
:100DA80001F000018451D92600018551DA220001A1
:100DB80082C0DFFF84C0D9FF85C0DAFF400EDF168E
:100DC80084C0D9FF85C0DAFF000EDB8684C0D9FF56
:100DD80085C0DAFF000EDB8E00017F51D8B40AD03F
:100DE80000018351020D0001680EF324D96E000141
:100DF800000E09D000018351020D00016C0EF3248E
:100E0800D96E0001000EF420DA6E040EDF1A00011C
:100E180085C080F0000184C07FF012006498000152
:100E28007CBF39D0000163AF0BD0020E446E3F6621
:100E380002D05EEC0AF0000E426E000E416E120007
:100E480020EE01F03750D9263850DA22080EDF6E2E
:100E580020EE02F03750D9263850DA22200EDE6E06
:100E6800020EDD6E37C0D9FF38C0DAFF0C0EDF6E18
:100E780037C0D9FF38C0DAFF000EDB8E68C0D9FF53
:100E880069C0DAFF040EDF6E68C0D9FF69C0DAFFF7
:100E9800000EDB8E1200020120AF0FD0010E446E4F
:100EA8003E6602D05EEC0AF0000E426E000E416E05
:100EB80040661200FCEC09F01200020E446E20EEAF
:100EC80001F03750D9263850DA22080EDF6E20EEAE
:100ED80002F03750D9263850DA22200EDE6E020E84
:100EE800DD6E37C0D9FF38C0DAFF040EDF6E37C0B9
:100EF800D9FF38C0DAFF000EDB8E000E426E000EFE
:100F0800416E40661200FCEC09F01200080E016EFA
:100F1800080E00017D5D000E00017E59D8B00BD08F
:100F28007DC001F0466602D0010E04D04604D8A464
:100F380002D0020E466E015000017D5F000E0001D6
:100F48007E5B000120EE01F000016851D926000106
:100F58006951DA2201C0DFFF0201020E3A6E020176
:100F6800280E396E00017CA11ED03DD0000179C049
:100F7800F6FF00017AC0F7FFF86A39C0D9FF3AC016
:100F8800DAFF020EF76403D00800F55005D0F6CF5B
:100F9800E9FFF7CFEAFFEF50DF6E0001794B7A2BBC
:100FA800394A3A2A01060166E1D71200000179C0E0
:100FB800F6FF00017AC0F7FFF86A39C0D9FF3AC0D6
:100FC800DAFF020EF76403D00800F55005D0F6CF1B
:100FD800E9FFF7CFEAFFEF50DF6E0001794B7A2B7C
:100FE800394A3A2A01060166E1D712002D0E436EEE
:100FF80049C021F0FD0E2116D8A45AD049C021F0CD
:10100800D89021323F0E21162150040D0201000E06
:10101800F324356E0201020EF420366E36C038F025
:1010280035C037F0040E371A35C0D9FF36C0DAFF9D
:10103800DF30E8320F0B0D0AD8A437D0000E236E2C
:1010480024D020EE02F03550D9263650DA22DECFF1
:1010580021F0DDCF22F021C0D9FF22C0DAFF2350D2
:10106800010D0201200EF324E16E0201020EF420AC
:10107800E26EDFCFE7FF20EE02F03550D92636507A
:10108800DA22DE2A000EDD22232A070E2364D9D7AE
:1010980020EE02F03550D9263650DA22200EDE6EC8
:1010A800020EDD6EFEEC0AF01200C0EC0BF012002E
:1010B80049C021F0FD0E21162150040AD8A41200BF
:1010C80034EC09F0120002012051C00AD8A42FD034
:1010D80002012151EE0AD8A4120002012451040A87
:1010E8002511D8A412008F0EF66E3F0EF76E090078
:1010F800F5CF01F00A00F5CF02F001500201265D9C
:10110800025002012759D8B004D026C201F027C2E4
:1011180002F03F0E00017A6F8F0E0001796F01C057
:101128007DF002C07EF0C00E00017C6F120002014B
:101138002051C10AD8A4120002012151EE0AD8A4F4
:10114800120002012451050A2511D8A412008D0E9F
:10115800F66E3E0EF76E0900F5CF01F00A00F5CFE6
:1011680002F001500201265D025002012759D8B051
:1011780004D026C201F027C202F03E0E00017A6FA9
:101188008D0E0001796F01C07DF002C07EF0C00EA7
:1011980000017C6F1200056E0150D8B409D00550CB
:1011A800020D0001680EF324D96E0001000E08D06C
:1011B8000550020D00016C0EF324D96E0001000EDB
:1011C800F420DA6EDECF06F0DDCF07F00750061008
:1011D800D8A405D0000E026E000E016E120020EE9B
:1011E80002F00650D9260750DA2202C0DEFF03C0FB
:1011F800DDFF20EE01F00650D9260750DA2204C0A0
:10120800DFFF06C0D9FF07C0DAFF400EDF1606C0B1
:10121800D9FF07C0DAFF000EDB8606C0D9FF07C07A
:10122800DAFF000EDB8E0150D8B409D00550020D4C
:101238000001680EF324D96E0001000E08D0055095
:10124800020D00016C0EF324D96E0001000EF4208B
:10125800DA6E040EDF1A07C002F006C001F01200B1
:1012680068C0D9FF69C0DAFF000EDFBC010E026E4C
:10127800040E0001681B00017851080AD8A40ED09A
:10128800020122517F0B0F015C6F0F015C51D8B432
:1012980002D0100E01D0040E0001786F4404D8A4C7
:1012A8003CD0000120EE02F000016851D92600016F
:1012B8006951DA22280EDE6E020EDD6E8AEC07F026
:1012C8004650020AD8A40DD068C0D9FF69C0DAFF19
:1012D800040EDF6E68C0D9FF69C0DAFF000EDB8E2E
:1012E800120002660DD068C0D9FF69C0DAFF480E47
:1012F800DF6E68C0D9FF69C0DAFF000EDB8E12000E
:1013080068C0D9FF69C0DAFF080EDF6E68C0D9FF70
:1013180069C0DAFF000EDB8E1200000163AF02D055
:101328000001639F000E446E1200000E0201286F38
:10133800000E0201296F3FD000017C8F3C04D8A425
:1013480046D00201288343D000017C8F40D00001A1
:101358007C8F020124BF0DD0020124510F0B016EB6
:101368000150020D00016C0EF324D96E0001000E2D
:101378000CD0020124510F0B016E0150020D000127
:10138800680EF324D96E0001000EF420DA6EDECF69
:1013980002F0DDCF03F002C0D9FF03C0DAFFDFAEF1
:1013A80016D002C0D9FF03C0DAFFDFA410D0010EA7
:1013B8000201286F0CD0020120511F0B000AD8B47B
:1013C800BBD7010AD8B4C0D7030AD8B4C0D7000124
:1013D8007CAF12000201020E00017A6F0201280E92
:1013E8000001796F00017C81020E00017D6F1200FF
:1013F80041661200010E416E42661200010E426EF5
:101408004450020AD8A418D0000120EE01F00001CF
:101418006851D92600016951DA22000EDF6E68C0D2
:10142800D9FF69C0DAFF480EDF6E68C0D9FF69C00E
:10143800DAFF000EDB8E12004404D8A41200000E5E
:101448003B6E20EE01F03550D9263650DA22080ED0
:10145800DF6E20EE02F03550D9263650DA22200E03
:10146800DE6E020EDD6E35C0D9FF36C0DAFF040E1F
:10147800DF6E35C0D9FF36C0DAFF000EDB8E010EF5
:101488003B6E20EE01F03750D9263850DA22080E8C
:10149800DF6E20EE02F03750D9263850DA22200EBF
:1014A800DE6E020EDD6E37C0D9FF38C0DAFF800E5F
:1014B800DF6E1200000E3E6E000E3F6E4450020AB0
:1014C800D8A41FD020EE01F03750D9263850DA22A0
:1014D800080EDF6E20EE02F03750D9263850DA2297
:1014E800280EDE6E020EDD6E37C0D9FF38C0DAFF77
:1014F800480EDF6E37C0D9FF38C0DAFF000EDB8E2A
:10150800120000017D510201265D00017E51020199
:101518002759D8B004D026C27DF027C27EF08AECC5
:1015280007F0000120EE02F000016851D926000101
:101538006951DA22280EDE6E020EDD6E68C0D9FF10
:1015480069C0DAFF480EDF6E68C0D9FF69C0DAFFEC
:10155800000EDB8E1200066E0201020E086E0201FA
:10156800000E076E0150026E036AD89002360336E9
:101578000650046E056AD89004360536D8900436AD
:1015880005360250042603500522D8900436053645
:10159800D89004360536045007260550082207C09F
:1015A800D9FF08C0DAFFDF9E016609D00650020D98
:1015B80000016C0EF324D96E0001000E08D006500D
:1015C800020D0001680EF324D96E0001000EF4200C
:1015D800DA6E07C0DEFF08C0DDFF07C0D9FF08C00C
:1015E800DAFFDF9C20EE04F00750D9260850DA22F3
:1015F800DF8C1200000E466E000E406E000E3E6E2E
:10160800000E3F6E000E3B6E000E446E68C0D9FFA0
:1016180069C0DAFF7F0EDF16040E0001681B68C080
:10162800D9FF69C0DAFF7F0EDF16040E0001681BC0
:1016380037C0D9FF38C0DAFF7F0EDF16000E000171
:101648007C6F000E00017E6F000E00017D6F000EA2
:101658000001636F000E0001656F000E0001646FEA
:101668009AEC05F0000E106E030E0F6E000E126E4F
:10167800000E116E000E146E000E136E87EC0BF048
:1016880012EC07F0120064A235D0010EC6EC0CF083
:10169800120033043410D8A404D0010EABEC0CF0C3
:1016A8002FD033504B0A3410D8A404D0010EC6EC06
:1016B8000CF026D0970E335C000E14D0330434108F
:1016C800D8A404D0010EABEC0CF01AD03350320A77
:1016D8003410D8A404D0010EC6EC0CF011D0B70E0B
:1016E800335C030E3458D8A00BD0000E346E000EB5
:1016F800336E06D000017851200AD8B4CAD7DED795
:10170800334A342A12000FD047EC0BF0120047EC92
:101718000BF0120047EC0BF0120011EC0CF0120069
:1017280067EC08F012000FC015F010C016F0165044
:10173800000AD8B404D07F0AD8A412001AD01550D1
:10174800010AD8B4EAD7030AD8B41200010AD8B4F7
:10175800E7D7060AD8B41200770AD8B41200010AEB
:10176800D8B4D2D7070AD8B4D5D7010AD8A412005A
:10177800CED71550FF0A12004450020AD8A403D04D
:101788000CEC05F01200000E446E3B661FD020EEF4
:1017980001F03750D9263850DA22080EDF6E20EED5
:1017A80002F03750D9263850DA22200EDE6E020EAB
:1017B800DD6E37C0D9FF38C0DAFF0C0EDF6E37C0D8
:1017C800D9FF38C0DAFF000EDB8E1200000E3B6E28
:1017D80012000E6E09A405D0000E016E0E50AFEC7B
:1017E8000AF009A205D0010E016E0E50AFEC0AF006
:1017F8000E50010D530E0A6E0F0E0B6EF3500A2693
:10180800F4500B220AC00CF00BC00DF00CC0D9FF2D
:101818000DC0DAFF09C0DFFF1200000E0001736F70
:10182800000E0001726F000E0001716F000E0001C2
:10183800706F1E0E096E010EEDEC0BF0000E016EBE
:101848000201020E036E0201800E026E400E046E4B
:10185800010ECFEC08F001C072F002C073F0120064
:101868000F0153A11CD0800E35C0D9FF36C0DAFF56
:10187800DF6213D0840E68C0D9FF69C0DAFFDF6267
:101888000CD035C0D9FF36C0DAFF0C0EDF6E35C07C
:10189800D9FF36C0DAFF000EDB8E0F015391629A32
:1018A800120000017F6F08D09490120094921200E9
:1018B800949412009496120000017F51000AD8B443
:1018C8001200010AD8B4F0D7030AD8B4EFD7010A36
:1018D800D8B4EED7070AD8A41200ECD700017F6F5E
:1018E80008D08B7012008B7212008B7412008B76EA
:1018F800120000017F51000AD8B41200010AD8B4BE
:10190800F0D7030AD8B4EFD7010AD8B4EED7070A3C
:10191800D8A41200ECD7000180C086F000017FC077
:1019280085F00AD085C0D9FF86C0DAFF000181C0E2
:10193800DFFF0001854B862B00018307D8A08407B1
:1019480000018329D8B48429D8B41200EBD7016EDA
:1019580008D08B8012008B8212008B8412008B8639
:1019680012000150000AD8B41200010AD8B4F1D705
:10197800030AD8B4F0D7010AD8B4EFD7070AD8A415
:101988001200EDD7016E08D08B9012008B921200D6
:101998008B9412008B9612000150000AD8B41200E2
:1019A800010AD8B4F1D7030AD8B4F0D7010AD8B4D9
:1019B800EFD7070AD8A41200EDD700017867120004
:1019C800000E646E000E606E160E616E9F0E0F01A3
:1019D8005B6F7B0E606ED08EA284A084F28E01D0E5
:1019E800648664A6FDD7010E0001786F120000011D
:1019F800806F0AD0010E55EC0CF0020E55EC0CF07D
:101A0800010E89EC0DF0120000018051000AD8B4D3
:101A1800F1D7010AD8B41200030A1200000E3D6E75
:101A2800000E106E740E0F6E000E126E000E116E08
:101A3800000E146E000E136E87EC0BF06492609427
:101A480001D0629462A41200FCD702C008F001C061
:101A580007F008D007C0D9FF08C0DAFF03C0DFFFCE
:101A6800074A082A0506D8A006060528D8B4062875
:101A7800D8B41200EFD700017F6F08D080B602D02B
:101A8800010E1200000E1200000E120000017F511C
:101A9800000AD8B4F9D7010AD8B4F0D7000E12005A
:101AA800608462986482010E3D6E000E106E750EA1
:101AB8000F6E000E126E000E116E000E146E000EE8
:101AC800136E87EC0BF0120000EE60F01F0EEE6A4A
:101AD800E806FDE100EE33F0170EEE6AE806FDE1D8
:101AE800000EF86E000179EF0DF0000EFBEC0CF023
:101AF80068EC02F0E1EC0CF0200E0001785DD8B043
:101B080064B2FAD775EC04F0F7D700017F6F0001D3
:0C1B18007F51000AD8B41200010A12002C
:103E840000FB3F5B3F1B3FB73F8E00000000010576
:103E940000010084000000010000002800440065C7
:103EA40000760069006300650049006E00740065D7
:103EB4000072006600610063006500470055004918
:103EC40000440000004E0000007B00350038006410
:103ED40000300037003200310030002D003200374E
:103EE40000630031002D0031003100640064002DB6
:103EF4000062006400300062002D003000380030A1
:103F040000300032003000300063003900610036B8
:103F14000036007D00000040034D0069006300721C
:103F2400006F00630068006900700020005600659F
:103F3400006E0064006F007200200045007800618C
:103F4400006D0070006C0065002000440065007680
:103F54000069006300650034034D0069006300726A
:103F6400006F006300680069007000200054006561
:103F740000630068006E006F006C006F00670079DA
:103F840000200049006E0063002E0028000000009D
:103F94000104000100000000000000000157494E28
:103FA4005553420000000000000000000000000023
:103FB40000000009022000010100C03209040000D1
:103FC40002FFFFFF0007050102400001070581020F
:103FD40040000112034D00530046005400310030EC
:103FE400003000EE001201000200000008D8045363
:0C3FF400000000010200010403090400A9
:020000040020DA
:08000000FFFFFFFFFFFFFFFF00
:020000040030CA
:0E0000000032011EFF0081FF03C003E0034039
:00000001FF
